:020000040800F2
:10000000B1AA010000000000000000000000000094
:1000100000000000000000000000000000000000E0
:1000200000000000000000000000000000000000D0
:1000300000000000000000000000000000000000C0
:1000400000000000000000000000000000000000B0
:1000500000000000000000000000000000000000A0
:100060000000000000000000000000000000000090
:100070000000000000000000000000000000000080
:100080000000000000000000000000000000000070
:100090000000000000000000000000000000000060
:1000A0000000000000000000000000000000000050
:1000B0000000000000000000000000000000000040
:1000C0000000000000000000000000000000000030
:1000D0000000000000000000000000000000000020
:1000E0000000000000000000000000000000000010
:1000F0000000000000000000000000000000000000
:1001000000000000000000000000000000000000EF
:1001100000000000000000000000000000000000DF
:1001200000000000000000000000000000000000CF
:1001300000000000000000000000000000000000BF
:1001400000000000000000000000000000000000AF
:100150000000000000000000000000007370043088
:10016000170500001305C5FF8545F605637BB5003F
:1001700089816378B500170500001305C5002E9529
:1001800002859302002073A0027D970200009382F3
:1001900062E773907230972200009382E22E739090
:1001A000C27E73E0C07E972200009382A2257390E6
:1001B0005230970100189381E16A178100181301EA
:1001C00061E4174500001305E50F970500189385B6
:1001D00065E3170600181306E6E963FAC5008322F3
:1001E000050023A0550011059105E3EAC5FE17059A
:1001F0000018130525E8970500189385A535637742
:10020000B500232005001105E36DB5FE73F0023241
:10021000173500001305C53097300000E780E02B4C
:1002200097300000E780403397100000E780004DD2
:100230000145814597100000E780C090173300000A
:100240006700A32A01A073E00232828073F00232B9
:0402500082800000A8
:100280000A50726F6772616D2068617320657869CA
:10029000746564207769746820636F64653A000050
:1002A000307800006E6D690A0000000074726170A1
:1002B0000A00000000000000000000000000000034
:1002C00000000000000000080808080808080000F6
:1002D0001818000000486C24120000000000000004
:1002E000000000000000002424247F1212127F125C
:1002F000121200000000081C2A2A0A0C1828282ABA
:100300002A1C080800000022251515152A585454E7
:10031000542200000000000C1212120A7625291146
:10032000916E0000000606040300000000000000BB
:1003300000000000004020101008080808080810FD
:1003400010204000000204080810101010101008BF
:10035000080402000000000008086B1C1C6B080861
:100360000000000000000000080808087F080808D6
:100370000800000000000000000000000000000075
:10038000060604030000000000000000FE0000005C
:10039000000000000000000000000000000000005D
:1003A00006060000000080404020201010080804CD
:1003B000040202000000001824424242424242422B
:1003C00024180000000000080E08080808080808A3
:1003D000083E00000000003C424242202010080479
:1003E000427E00000000003C424220182040404273
:1003F000221C0000000000203028242422227E201D
:10040000207800000000007E0202021A26404042CE
:10041000221C0000000000382402021A2642424238
:10042000241800000000007E22221010080808088E
:10043000080800000000003C4242422418244242C6
:10044000423C0000000000182442424264584040F0
:10045000241C00000000000000001818000000002C
:100460001818000000000000000000080000000054
:1004700000080804000000402010080402040810CE
:10048000204000000000000000007F0000007F000E
:1004900000000000000000020408102040201008A6
:1004A000040200000000003C4242464020101000C0
:1004B000181800000000001C225A555555552D42B1
:1004C000221C00000000000808181414243C2242DA
:1004D00042E700000000001F2222221E2242424268
:1004E000221F00000000007C424201010101014284
:1004F000221C00000000001F2242424242424242AF
:10050000221F00000000003F4212121E121202427F
:10051000423F00000000003F4212121E121202026F
:10052000020700000000003C22220101017121228B
:10053000221C0000000000E7424242427E4242424A
:1005400042E700000000003E080808080808080804
:10055000083E00000000007C101010101010101059
:100560001010110F0000007722120A0E0A12122238
:1005700022770000000000070202020202020202CB
:10058000427F000000000077363636362A2A2A2AB3
:100590002A6B0000000000E346464A4A525252626B
:1005A000624700000000001C22414141414141419D
:1005B000221C00000000003F424242423E02020272
:1005C000020700000000001C2241414141414D53FF
:1005D000321C60000000003F4242423E12122222C2
:1005E00042C700000000007C424202041820404242
:1005F000423E00000000007F49080808080808087B
:10060000081C0000000000E74242424242424242CF
:10061000423C0000000000E7424222242414141847
:10062000080800000000006B494949495555362229
:1006300022220000000000E7422424181818242475
:1006400042E700000000007722221414080808087E
:10065000081C00000000007E212010100804044245
:10066000423F000000780808080808080808080841
:10067000080878000000020204040808081010208E
:1006800020204040001E10101010101010101010EC
:1006900010101E00003844000000000000000000A0
:1006A000000000000000000000000000000000004A
:1006B000000000FF0006080000000000000000002D
:1006C00000000000000000000000003C42784442AE
:1006D00042FC0000000000030202021A26424242CD
:1006E000261A000000000000000000384402020248
:1006F00044380000000000604040407844424242DC
:1007000064D80000000000000000003C427E0202AD
:10071000423C0000000000F08808087E0808080835
:10072000083E0000000000000000007C22221C02A5
:100730003C42423C000000030202023A464242426E
:1007400042E700000000000C0C00000E080808083A
:10075000083E00000000003030000038202020203B
:100760002020221E0000000302020272120A16124A
:10077000227700000000000E080808080808080892
:10078000083E0000000000000000007F929292925C
:1007900092B70000000000000000003B46424242C9
:1007A00042E70000000000000000003C42424242DC
:1007B000423C0000000000000000001B26424242B4
:1007C000221E02070000000000000078444242425E
:1007D000447840E000000000000000774C0404046E
:1007E000041F0000000000000000007C42023C40AA
:1007F000423E0000000000000008083E080808080B
:100800000830000000000000000000634242424245
:1008100062DC000000000000000000E74224241415
:100820000808000000000000000000EB4949555591
:100830002222000000000000000000762418181892
:10084000246E000000000000000000E74224241491
:1008500018080807000000000000007E22100808A9
:10086000447E000000C020202020201020202020D6
:100870002020C000101010101010101010101010B8
:1008800010101010000608080808081008080808CA
:100890000808060000183C425A5A5A5A5A5A5A5ADC
:1008A000427E000000183C4242425A5A5A5A5A5A52
:1008B000427E000000183C42424242425A5A5A5A72
:1008C000427E000000183C424242424242425A5A92
:1008D000427E000000183C424242424242424242B2
:1008E000427E000000000000000000000040AF4019
:1008F0005265616374696F6E2054696D65720000A2
:100900004765742052656164792E2E2E2000000008
:100910005052455353202573000000004E69636513
:100920002120000054696D653A202564206D7320F4
:100930002825732900000000546F6F20536C6F77D7
:10094000212000004C45440042757A7A657200000F
:100950005669627261746F72000000004C617374BA
:10096000203520526573756C74733A0025643A2003
:100970002564206D7320282573290000507265734B
:100980007320627574746F6E00000000F62300001F
:10099000462300004C23000046230000E82300000B
:1009A000462300004C230000F6230000F62300003D
:1009B000E82300004C2300002C2300002C2300001F
:1009C0002C23000050230000FC270000FC2700001F
:1009D00014280000F6270000F6270000A2280000D7
:1009E00014280000F6270000A2280000F6270000C7
:1009F00014280000F4270000F4270000F42700006A
:100A0000A2280000000102020303030304040404FB
:100A1000040404040505050505050505050505058A
:100A2000050505050606060606060606060606066A
:100A30000606060606060606060606060606060656
:100A4000060606060707070707070707070707073A
:100A50000707070707070707070707070707070726
:100A60000707070707070707070707070707070716
:100A70000707070707070707070707070707070706
:100A800007070707080808080808080808080808EA
:100A900008080808080808080808080808080808D6
:100AA00008080808080808080808080808080808C6
:100AB00008080808080808080808080808080808B6
:100AC00008080808080808080808080808080808A6
:100AD0000808080808080808080808080808080896
:100AE0000808080808080808080808080808080886
:100AF0000808080808080808080808080808080876
:100B000008080808232D302B20000000686C4C00DA
:100B10006566674546470000303132333435363735
:100B200038394142434445460000000030313233F9
:100B30003435363738396162636465660000000019
:100B400059711305306086D6A6D2D2CCD6CAE2C47B
:100B5000A2D4CAD0CECEDAC8DEC6E6C29700000064
:100B6000E78080371305206097000000E780C036DB
:100B70001305406097000000E7800036B71401407D
:100B8000138504C085460D46C14597000000E780E7
:100B9000402913850480930600020D469145970075
:100BA0000000E7800028A9660D46C14537150140C1
:100BB00097000000E780E02697100000E78060ECD7
:100BC000014597100000E7800032C1663716000823
:100BD0000147938606801306068FA945294597107D
:100BE0000000E780C0441305803E97100000E780B6
:100BF000004A0545371A0008B71A0008371C0008D4
:100C000097100000E7806065130A4A94971000006F
:100C1000E7804076938A8A94130C0C95938404C0E1
:100C2000014597100000E780002CC16637160008C8
:100C30000147811613060690A94529459710000023
:100C4000E780E03E97100000E78020489710000002
:100C5000E780E04397300000E78000980D4433645C
:100C60008502014597100000E780E027D28911C472
:100C70008547D6896303F400E289B71500084E86DC
:100C800093850591480097300000E780E09D01477B
:100C90009306007E5000A945294597100000E78083
:100CA0000039B70700D103AB070083AB47006310DF
:100CB00004128545268597000000E780C020930C2C
:100CC000401F97100000E78060422A8963130512D5
:100CD0000545FD1C97100000E780603BE3930CFE88
:100CE0008545268597000000E780201E0145971066
:100CF0000000E780E06697100000E780806C630CDE
:100D0000090EB70700D103A847009C431D66B30531
:100D100078413385674133B7A7001306869781462C
:100D2000998D3709002097100000E780007D130996
:100D3000090803470900B707002093870752931655
:100D40003700B69788C32382870005072A8B0145A1
:100D50002300E90097100000E780E018371600082C
:100D600001479306007E1306C691A94529459710B1
:100D70000000E780C02BB7150008CE865A86938501
:100D80004592280897300000E780008EA166014751
:100D9000FD16300893053002154597100000E780D6
:100DA000002903470900914763FCE7001305007D14
:100DB00097100000E780A02D97100000E780003A10
:100DC0001305803E97100000E780602C91BD854799
:100DD0006319F4001305A02497100000E780405821
:100DE000F9BD8947E31DF4EC97100000E780405CF3
:100DF000F9B50549F5B5014597100000E780A00E4B
:100E0000C16637160008014793860680130686934D
:100E1000A945294597100000E780602155B793F751
:100E2000050193F8F50099C3B3E8C8008147054E62
:100E3000BD4E130F8002930F800421433316FE0032
:100E4000758E1DC213972700832205003398EE008C
:100E50001348F8FF337858003397E80033670701E9
:100E60006399E50550C918C18507E39967FC054EEC
:100E7000BD4E130F8002930F800441433316FE00D2
:100E8000758E05C6139727000117832245003398F6
:100E9000EE001348F8FF337858003397E8003367C3
:100EA0000701639CE50150C958C18507E39867FCB9
:100EB0008280E39AF5FB10C97DB7E397F5FF10C96F
:100EC000E5B70CC982804CC9828008456D8D3335E9
:100ED000A0008280B7170240135765003E97144365
:100EE0008547B397A700D58F1CC38280B7170240F0
:100EF000135765003E9714438547B397A700D58FD6
:100F00001CC38280B7170240135765003E971443F5
:100F10008547B397A70093C7F7FFF58F1CC382805F
:100F20002320050023220500232405002326050095
:100F3000232A0500232C050082801C410D6713071E
:100F40000704D4417D8F9C41D58F9445D58FD445DE
:100F5000D58F9449D58FD449D58F944DD58FD98FBE
:100F60001CC15C4D7D771307F77FF98F5CCD8280C4
:100F70001C4193E707041CC182804CC582801C4140
:100F80000967D98F1CC10CC9828008456D8D333526
:100F9000A00082804111B717004006C6138707C022
:100FA000630EE5086367A702370700409306074012
:100FB0006304D506938707806309F5066312E50A83
:100FC0001305004097000000E78080F21305004001
:100FD00035A813870740630CE50637370140130730
:100FE00007C0630DE500631DF5061305404097003B
:100FF0000000E780E0EF1305404009A81305B0307A
:1010000097000000E780C0EE1305B030B240410108
:1010100017030000670043EF13051040970000001E
:10102000E78000ED13051040D5B713052040970069
:101030000000E780E0EB13052040C9BF13053040F6
:1010400097000000E780C0EA13053040C1B71305E0
:10105000504097000000E780A0E9130550407DB79D
:10106000B24041018280C167FD1723200500231291
:1010700005001CC52316050023070500828083D7C1
:10108000050003D745009376F5BF1CD5B73701405F
:10109000938707C0418B630AF500FD779387F73F7D
:1010A000E98F370600406390C7061C4193F7F7F8B5
:1010B0001CC183D72500104193F70706D18F1CC1AF
:1010C0001C415D8F18C19C455CD5B71700406387F4
:1010D000F6021C4193F7F7CF1CC183D7C500184116
:1010E00093F70730D98F1CC1B7370140138707C06A
:1010F0006316E50003C7E50023A8E7C25C4993E750
:1011000017005CC982801C41BD9B55BF1C4193E701
:1011100017001CC182801C4193E707081CC1828014
:1011200023100500231105002312050023130500D9
:10113000231405002315050082808547638EF5087A
:1011400081C989476389F5128D476387F51C8280C1
:101150001C51F99B1CD1185183570600D98F1CD103
:101160001C51F59B1CD1185183574600D98F1CD1B7
:10117000B7370140138707C0631CE50418516D9B06
:1011800018D1145103572600558F18D118515D9B63
:1011900018D1145103576600558F18D103A747C0C3
:1011A0001377F7EF23A2E7C083A647C00357860053
:1011B000558F23A2E7C003A747C01377F7DF23A209
:1011C000E7C083A647C00357A600558F23A2E7C0F8
:1011D0001C4DF19B1CCD82801C51BD9B1CD18357A3
:1011E000060018519207D98F1CD11C5193F7F7FDB7
:1011F0001CD18357460018519207D98F1CD1B7379D
:101200000140138707C06314E50618511377F7FBF5
:1012100018D10357260014511207558F18D11851B1
:101220001377F7F718D10357660014511207558F3B
:1012300018D103A747C01377F7BF23A2E7C003570E
:10124000860083A647C00A07558F23A2E7C003A7DD
:1012500047C0FD769386F67F758F23A2E7C00357BC
:10126000A60083A647C00A07558F23A2E7C01C4DDE
:1012700093F7F7CF85B71C5193F7F7EF1CD183573E
:1012800006001851A207D98F1CD11C5193F7F7DF24
:101290001CD1835746001851A207D98F1CD1B737EC
:1012A0000140138707C06315E50618511377F7BF90
:1012B00018D10357260014512207558F18D1185101
:1012C000FD769385F67F6D8F18D1035766000C511C
:1012D000FD1622074D8F18D103A747C0F98E23A210
:1012E000D7C00357860083A647C01207558F23A295
:1012F000E7C003A747C0F976FD16758F23A2E7C0A4
:101300000357A60083A647C01207558F23A2E7C044
:101310005C4DF19B5CCD82801C517D777D17F98FF0
:101320001CD1835706001851B207D98F1CD11C510C
:1013300079777D17F98F1CD1835746001851B20772
:10134000D98F1CD1B7370140138707C06311E5025D
:1013500003A747C0F176FD16758F23A2E7C0035798
:10136000860083A647C01A07558F23A2E7C05C4DAD
:1013700093F7F7CF45B785476382F50281C989475F
:101380006386F5028D47638BF50282801C4D93F7CF
:10139000F7F81CCD1C4D5D8E10CD82801C4D6577FD
:1013A0007D17F98F1CCD1C4D2206F5B75C4D93F7C8
:1013B000F7F85CCD5C4D5D8E50CD82805C4D6577DD
:1013C0007D17F98F5CCD5C4D2206F5B78547638CA0
:1013D000F50081C98947638AF5008D476389F50067
:1013E000828050D9828010DD828050DD828030C1C1
:1013F000828085476381F50281C989476386F5024A
:101400008D47638AF50282801C4DDD9B1CCD1C4DEF
:101410005D8E10CD82801C4D7D771307F77FF98F8D
:101420001CCD1C4D2206EDB75C4DDD9B5CCD5C4DAB
:101430005D8E50CD82805C4D7D771307F77FF98FED
:101440005CCD5C4D2206EDB7B71702409843B70656
:10145000FFE0B1061367170098C3D843758FD8C350
:101460009843B706F7FEFD16758F98C39843B706E5
:10147000FCFFFD16758F98C3D843B70601DFFD1634
:10148000758FD8C323A607029843B706F7EAFD165F
:10149000758F98C33707FF0098C794434167D98E6B
:1014A00094C39307F7FF3717024014431396E600DF
:1014B00063440600FD17F5FBB717024098439316E7
:1014C000E70063C3060001A0D843B706C4DFFD16DA
:1014D000D8C3D843D8C3D84313670740D8C3D84329
:1014E000758FD8C3D843B7062920558FD8C3D8578E
:1014F000BD76758FD8D7D857C166938616F1558FAC
:10150000D8D79843B7060004558F98C3B717024041
:10151000984393164700E3DD06FE9843B706001094
:10152000558F98C3B7170240984393162700E3DD01
:1015300006FE9843B7060001558F98C3B7170240BF
:10154000984393166700E3DD06FED843719BD8C32A
:10155000D84313672700D8C3371702405C43A18BD9
:10156000F5DF82807971B705000822D47D462A8490
:10157000938505280A8506D697200000E780600439
:1015800079468A85094597200000E780C012A28528
:10159000094597000000E780C004B705000805462C
:1015A0009385052B094597200000E780C01001A016
:1015B00037070020130747061C43B7060020938611
:1015C00006553E95636BD500B776002093860600DE
:1015D00063E5A60008C33E858280FD57EDBF7971A3
:1015E0004ECEAE89B705000809469385052A22D458
:1015F00026D24AD052CC56CA06D62A8971449720A0
:101600000000E780400B3D4AA54AF154B3178A0019
:10161000B3F73701B3D7870093F7F70F63ECFA02FC
:101620009387070393F7F70F05469305F1004A8563
:101630007114A307F10097200000E780C007E317AB
:1016400094FCB250225492540259F249624AD24A4E
:101650004561828093877703F1B7B70700D1D843FC
:101660008843CC43E39DE5FE8280B70700D2238008
:101670000700A38507001205B71700D23E9563E364
:10168000A700828023A00700C107D5BFF3275030F1
:1016900093F707FC93E73700739057308280B705C4
:1016A0000008411115469385452A054506C6972031
:1016B0000000E7804000054597000000E780C0EA91
:1016C00041119347F5FF22C406C6139747012A84A8
:1016D00009E797000000E780C0FCB7050008154641
:1016E0009385C52A054597200000E780C0FC228528
:1016F00097000000E78040E7411106C69700000010
:10170000E780C0D41305700597000000E78020F63D
:1017100097000000E780C0F7B240410117F3FFFFD8
:101720006700A3B2828079714AD04ECE5AC806D6DD
:1017300022D426D252CC56CA5EC662C466C22A8B56
:1017400097000000E780A0F1AA892E899700000089
:10175000E780E0F0AA842E846394A900E308B9FE30
:10176000B717000803A9878E83A9C78EB70B00207F
:1017700097000000E780A0EEAA87058DB3B7A70009
:10178000818D9D8D97200000E780C0B52A8A03A532
:101790000B06AE8A97200000E78060AF4A86CE86AF
:1017A00097100000E780400B2A8C5A85AE8C97205A
:1017B0000000E780C0AD2A86AE866285E685971078
:1017C0000000E78000682A86AE865285D68597108D
:1017D0000000E780C05CE34D05F8B25022549254FB
:1017E0000259F249624AD24A424BB24B224C924CC5
:1017F00045618280411122C4B707002037040020D0
:101800000327440783A7870706C626C2630AF7088B
:101810003745004089451305058097F0FFFFE780B5
:1018200000772DC589653715014097F0FFFFE780E8
:10183000C069130444071440B70700201387070941
:101840008A06369714431307F00F93840709A1659E
:10185000371501406351D70497F0FFFFE780A0667A
:101860001C403745004013050580138717008A0781
:10187000A69783C5070018C097F0FFFFE780207088
:101880001C4013070010B3E7E7021CC0B24022441B
:1018900092444101828097F0FFFFE7800063C9B75F
:1018A0002244B2409244896537150140410117F343
:1018B000FFFF67004361411122C426C206C6B70478
:1018C00000203704002003A74407832784076317F9
:1018D000F700B24022449244410182809700000008
:1018E000E78080F1CDB7011122CC26CA4AC806CEC6
:1018F00037090020930400103704002013068907DD
:101900001C4283264407138717003367970263013D
:10191000D70293962700B7070020F24062449387CE
:101920000709B69788C318C2D2444249056182802C
:101930002AC697000000E78020EC3245C1B741116C
:1019400022C42A8421851305051006C697000000CD
:10195000E780A0F91375F40F2244B2401305051077
:10196000410117030000670043F8011122CC26CA89
:1019700037040020AA841305A00206CE36C22EC664
:101980001304040732C497000000E78000F6034503
:101990002400269597000000E780A0FA2246034520
:1019A0002400329597000000E780A0F91305B002EB
:1019B00097000000E78060F3B245034534002E95A0
:1019C00097000000E780E0F7034534009246369523
:1019D00097000000E780E0F66244F240D24413052D
:1019E000C002056117030000670023F07971896563
:1019F0003715014006D622D497F0FFFFE780A04CB0
:101A0000480097F0FFFFE780E051930740103EC287
:101A10008D47374400403ECC930700203EC84C0021
:101A2000A147130504803ECE02C402C602CA97F045
:101A3000FFFFE780C050130504809D4597F0FFFF2E
:101A4000E78020541305048097F0FFFFE780805261
:101A5000B25022544561828009E9B707011A37075D
:101A6000002085072328F706828085476318F50044
:101A7000B70700201307101023A8E7068280B707D6
:101A8000002003C70707411122C406C613840707B5
:101A900011E7014597000000E78040FC1305306026
:101AA00097F0FFFFE78040431305406097F0FFFF8A
:101AB000E78080421305006097F0FFFFE780C04198
:101AC0001305E07097F0FFFFE780004137150140F4
:101AD000B9660D46E145130505C097F0FFFFE780A5
:101AE0004034A9660D46C1453715014097F0FFFF08
:101AF000E780203397000000E78080EFA965371565
:101B0000014097F0FFFFE780403C97000000E7802E
:101B1000C0DA1305400697000000E78000C10545C4
:101B200097000000E78060DC97000000E780E0D8C5
:101B30001305800797000000E78020BF4545970008
:101B40000000E78080DA97000000E78000D71305E7
:101B5000400697000000E78040BD8347140013054E
:101B6000200299E31305100297000000E780E0D7F8
:101B70001305100B97000000E78020D713055010C5
:101B800097000000E78060D61305A01397000000BF
:101B9000E780A0D51305A01397000000E780E0D4EC
:101BA0001305200B97000000E78020D41305501088
:101BB00097000000E78060D31305A0139700000092
:101BC000E780A0D21305A01397000000E780E0D1C2
:101BD0001305300B97000000E78020D1130550104B
:101BE00097000000E78060D01305A0139700000065
:101BF000E780A0CF1305A01397000000E780E0CE98
:101C00001305501097000000E78020CE1305A013A5
:101C100097000000E78060CD1305A0139700000037
:101C2000E780A0CC1305400B97000000E780E0CBD5
:101C30001305301097000000E78020CB1305000C3F
:101C400097000000E78060CA130520169700000087
:101C5000E780A0C91305201097000000E780E0C8C6
:101C60001305401097000000E78020C81305100CF2
:101C700097000000E78060C71305001C9700000074
:101C8000E780A0C61305200C97000000E780E0C5A0
:101C90001305D01097000000E78020C51305001041
:101CA00097000000E78060C41305300C9700000027
:101CB000E780A0C31305D01897000000E780E0C2BA
:101CC0001305A01697000000E78020C21305400C02
:101CD00097000000E78060C11305D018970000004E
:101CE000E780A0C01305E01E97000000E780E0BF7A
:101CF0001305500C97000000E78020BF1305E0108B
:101D000097000000E78060BE1305000E97000000FA
:101D1000E780A0BD1305001197000000E780E0BC3C
:101D20001305E01097000000E78020BC1305201089
:101D300097000000E78060BB13053010970000009B
:101D4000E780A0BA1305E01097000000E780E0B933
:101D50001305701097000000E78020B913052010CC
:101D600097000000E78060B813057010970000002E
:101D7000E780A0B71305A01097000000E780E0B649
:101D80001305201197000000E78020B6130570129C
:101D900097000000E78060B51305701397000000FE
:101DA000E780A0B41305001097000000E780E0B3BF
:101DB0001305D01097000000E78020B31305E01052
:101DC00097000000E78060B2130500119700000043
:101DD000E780A0B11305100E97000000E780E0B087
:101DE0001305001197000000E78020B01305E010F4
:101DF00097000000E78060AF1305301097000000E7
:101E0000E780A0AE1305301097000000E780E0AD3A
:101E10001305F01097000000E78020AD1305601057
:101E200097000000E78060AC1305201097000000C9
:101E3000E780A0AB1305801097000000E780E0AAC0
:101E40001305A01097000000E78020AA13053011A9
:101E500097000000E78060A913056012970000005A
:101E6000E780A0A81305601397000000E780E0A7B3
:101E70001305001097000000E78020A71305D0107D
:101E800097000000E78060A61305E01097000000AF
:101E9000E780A0A51305001197000000E780E0A4EB
:101EA0001305A00397000000E78020A4130550103D
:101EB00097000000E78060A313056003970000000F
:101EC000E780A0A21305801797000000E780E0A13B
:101ED0002244B2401305900241011703000067003D
:101EE000C3A041114AC09306F0072A891306F009DE
:101EF0008145014526C206C622C49304000A970004
:101F00000000E780C0A6130400084A857D149700EE
:101F10000000E78000A375F8FD14F5F4B2402244F8
:101F20009244024941018280411122C4AE8632842A
:101F30002A8606C697000000E78060A32285224417
:101F4000B2404101170300006700A39F9307800977
:101F500063ECA70C797122D406D626D24AD04ECE95
:101F600052CC56CA5AC85EC6930700072E8463E651
:101F7000B706B284811493F4F40FB68A1306750081
:101F80009386F50013994400B7040008AA893A8A99
:101F90009384442B97000000E780609D639A0A04B5
:101FA0008149B70B0020414BB3073901A69783CA7B
:101FB0000700214493F71A00528599E303A5CB51FA
:101FC0007D141374F40F97000000E780809793DA74
:101FD0001A006DF08509E39969FDB25022549254BC
:101FE0000259F249624AD24A424BB24B4561828061
:101FF000CA94130B0401A14B83CA0400014993F74F
:102000001A0089CB5286A2853385290197000000EA
:10201000E780C0F1050993DA1A00E31279FF05049D
:102020008504E31B64FD55BF8280011122CC26CAC2
:102030004AC84EC652C456C25AC006CE2A84AE847E
:102040003289B6893A8A930A8009130B000703463E
:10205000090019EAF2406244D2444249B249224A94
:10206000924A024B0561828063F48A00C1040144F4
:10207000E3629BFE22854E87D286A68597000000EC
:10208000E78000ED21040509D9B7B70700D103A8FF
:10209000070083A847009D67938787973305F5025C
:1020A0008145370600D10323060083234600B3068B
:1020B00003413337D300B3871341998F6394F500FD
:1020C000E3E3A6FE8280411106C697100000E78078
:1020D000A05095473365F502B2409307803E410119
:1020E00009053305F502828037150140411193053A
:1020F00000021305058006C697F0FFFFE78020DD8C
:10210000370700201307870683460700B70700201C
:102110001375F50F9387C7076389A600B70600D12B
:102120009042D4422300A70090C3370700D1104348
:102130009C435443B307F6403337F6006317D70088
:1021400069671307075E6377F70013351500B24020
:10215000410182800145E5BF1D71014586CEA2CCBB
:10216000A6CACAC8CEC6D2C4D6C25EDEDAC097003E
:102170000000E78040D7C166371600080147811686
:102180001306C695954529453704002037190008E0
:10219000B7190008371A000897000000E78020E907
:1021A000130404528144B70A002013094994938907
:1021B0008994130A0A95B71B000883C70A08138B72
:1021C0000A0863C7F4043716000801479306007E27
:1021D0001306C6979305A00A294597000000E780DB
:1021E00000E597000000E78060F065DD97000000E3
:1021F000E780C0EF65FDF640664423000B00D6443F
:102200004649B649264A964A064BF25B25618280CA
:1022100083474400850414404A8791C705464E878A
:102220006383C700528726869385CB962800971034
:102230000000E7806043CD45B385B402C166014725
:1022400093860680300029452104990597000000F7
:10225000E780E0DD9DB7797126D2AA84130520605E
:1022600006D622D497F0FFFFE78000C71305006071
:10227000858897F0FFFFE78020C689CC371501409D
:10228000930600040D46E1451305058097F0FFFF16
:10229000E78020B91305107097F0FFFFE780C0C3F7
:1022A000370400401305044097F0FFFFE780C0CEDD
:1022B000080897F0FFFFE78040DB9307B0063EC8B1
:1022C0000C0893075049130504403ECC231A010023
:1022D000231E0100230F010097F0FFFFE78060DA63
:1022E000480097F0FFFFE780E0E385473EC202C465
:1022F00002C6B1C0500081451305044097F0FFFFAE
:10230000E780E0E3014681451305044097F0FFFFB5
:10231000E780000C1306000681451305044097F082
:10232000FFFFE7808005014681451305044097F0D3
:10233000FFFFE780400C370400401305044097F08E
:10234000FFFFE78080DD1305044097F0FFFFE78083
:1023500020DCB25022549254456182802A8637058F
:10236000004081451305054017F3FFFF6700430652
:1023700041111305306006C622C497F0FFFFE780C5
:10238000A0B537140140130504C0C14591660D4640
:1023900097F0FFFFE780E0A8130504C02244B24095
:1023A0009165410117F3FFFF670023B23715014024
:1023B0009165130505C017F3FFFF6700C3B037151C
:1023C00001409165130505C017F3FFFF6700E3AFF8
:1023D00000000000000000000000000000000000FD
:1023E00000000000000000000000000000000000ED
:1023F00000000000000000000000000000000000DD
:102400005D7106C012C216C41AC61EC82ACA2ECCD6
:1024100032CE36D03AD23ED442D646D872DA76DCC4
:102420007ADEFEC0F322103496C0F322003096C24A
:10243000F322407C96C4732520348A8597F0FFFFF1
:10244000E78040288642739012349642739002309F
:10245000A6427390427C82401242A2423243C2435F
:102460005245E245724682561257A2573258C25818
:10247000525EE25E725F864F616173002030000041
:10248000000000005D7106C012C216C41AC61EC844
:102490002ACA2ECC32CE36D03AD23ED442D646D8F4
:1024A00072DA76DC7ADEFEC073D0E87E7350F97E95
:1024B00073D0B97EF390D07E73700430B6427390BF
:1024C000427CA6427390123496427390223482402A
:1024D0001242A2423243C2435245E24572468256FC
:1024E0001257A2573258C258525EE25E725F864F50
:1024F000616173002030AE87328836872A83639605
:10250000062097E8FFFF9388285063FEC50A4167BD
:102510006374E60A1307F00F3337C7000E07B3568C
:10252000E600B69883C60800369793060002998E97
:1025300099CAB397D7003357E5003318D600B3656F
:10254000F7003313D5001355080133F7A50213160E
:102550000801418293560301B3D5A5024207D98EE3
:10256000B307B6022E8763FCF600C2961387F5FF09
:1025700063E7060163F5F6001387E5FFC2969D8EBB
:10258000B3F7A602420313530301B3D6A602C20750
:1025900033E36700B305D6023685637BB30042930D
:1025A0001385F6FF636603016374B3001385E6FFCA
:1025B0004207498F81454DA8B70600014147E360B6
:1025C000D6F66147A9BF01E6854633D8C602C16683
:1025D000637ED8089306F00F63F306012147B356D4
:1025E000E800B69883C60800BA9613070002158F54
:1025F00049E7B38707418545135608019318080139
:1026000093D808019356030133F7C702B3D7C70223
:102610004207D98E3385F8023E8763FCA600C29636
:102620001387F7FF63E7060163F5A6001387E7FF4B
:10263000C296898EB3F7C602420313530301B3D681
:10264000C602C20733E36700B388D8023685637BCE
:10265000130142931385F6FF63660301637413014C
:102660001385E6FF4207498F3A858280B70600014D
:102670004147E366D8F661479DB73318E800B3D504
:10268000D7003313E500B356D50013550801B397AF
:10269000E70033F7A502B3E8F60093170801C183FA
:1026A00013D60801B3D5A5024207518FB386B702EE
:1026B0002E86637CD70042971386F5FF6367070178
:1026C0006375D7001386E5FF4297B306D74033F70B
:1026D000A602C20893D80801B3D6A6024207B38562
:1026E000D702B3671701368763FCB700C297138719
:1026F000F6FF63E7070163F5B7001387E6FFC297AC
:102700008D8F93150601D98DC5BD63E2D514416740
:1027100063FEE6021308F00F3337D8000E0733D8F4
:10272000E60097E5FFFF9385252EC29503C80500B7
:10273000930500023A98B385054185E10547E3E535
:10274000F6F23335C5001347150039BFB705000150
:102750004147E3E6B6FC6147D9B733570601B39664
:10276000B600D98E93DE060133D70701B378D703BD
:10277000B397B700335805013363F8009397060108
:10278000C183135803013316B6003357D703C20869
:1027900033E80801338FE7023A8E637CE80136980C
:1027A000130EF7FF6367D8006375E801130EE7FFA8
:1027B00036983308E841B378D8033358D803C208B1
:1027C000B38E070393170301C183B3E7F800428771
:1027D00063FCD701B6971307F8FF63E7D70063F5EB
:1027E000D7011307E8FFB697420EB387D741C16EF2
:1027F0003367EE001388FEFF337307019358070118
:10280000337806014182330E03033388080393565D
:102810000E013303C30242939A96B388C80263F34E
:102820000601F69813D60601B29863E01703E39306
:1028300017D9C167FD17FD8EC206337EFE00331522
:10284000B500F2968145E371D5E27D17A5B38145C8
:10285000014719BD797113D8450126D24ECE52CC0D
:102860005AC85EC69394C50006D622D44AD056CA2A
:102870001378F87F2A8BB28B368AB18093D9F50111
:10288000630408089307F07F630EF80C935AD50190
:102890008E04B3E49A00B70A8000B3EA540113141B
:1028A0003500130918C0014B13554A019314CA008F
:1028B0001378F57FB180135AFA016308080C930767
:1028C000F07F6301F8121395340093D7DB015D8D1F
:1028D000B7048000C98C139F3B00130518C08147C3
:1028E00013172B005D8F7D17B94633C64901330896
:1028F000A94063EBE61097E6FFFF938666090A0797
:102900003697184336970287B3EAA40063860A060F
:102910008DCC268597100000E78060B8930755FF9F
:102920007147634BF702F54A130485FFB38AFA40F7
:10293000B3948400B35A5B01B3EA9A0033148B005A
:102940001308D0C03309A840B9BF97100000E78032
:1029500000B513050502D9B7930485FDB31A9B0092
:102960000144F9BFB3EAA400638C0A002A84A68A52
:102970001309F07F0D4B0DBF01440149054B2DB7E5
:1029800001441309F07F094B05B733EF7401630469
:102990000F069DC8268597100000E78040B093077A
:1029A00055FF7147634AF7027547130F85FF1D8F67
:1029B000B394E40133D7EB00D98C339FEB011306BA
:1029C000D0C03305A64021BF5E8597100000E78088
:1029D00000AD13050502E1B7930485FDB3949B0098
:1029E000014FF1BF33EF7401630B0F005E8F1305CE
:1029F000F07F8D47F5B5814401458547D5B58144C4
:102A00001305F07F8947E9BD63E6540163939A2A71
:102A10006361E42B9396FA01135714009317F401A2
:102A200093DA1A0033E4E6001395840093548F017F
:102A3000458D135E0501B3D8CA0313130501135363
:102A400003011357040193158F00B3F4CA03C68F13
:102A5000B3061303939A040133675701637CD700CD
:102A60002A97938FF8FF6367A7006375D700938F4A
:102A7000E8FF2A97158FB35EC7034204418033777E
:102A8000C703F686B308D3034207418F637C17015F
:102A90002A979386FEFF6367A700637517019386E5
:102AA000EEFF2A97C20FB3EFDF00C1663304174170
:102AB0009388F6FF13DF0F0133F71F0193DE050143
:102AC000B3F81501B3031703B3041F033387EE02F2
:102AD000B302DF03330F970013D703017A976373B1
:102AE0009700B692135F0701169FC162FD12B3767D
:102AF0005700C206B3F353009E966367E401FE8459
:102B0000631EE40363FCD702AE9733B7B7002A977E
:102B10003A949384FFFF636685006311850263EF37
:102B2000B7006366E401631B8F0063F9D700AE97BB
:102B300033B7B7002A979384EFFF3A94B386D74010
:102B40003304E441B3B7D7001D8C7D5F6305850E68
:102B5000335FC40313D706013374C403B307E3031D
:102B60004204598C7A87637CF4002A941307FFFF90
:102B70006367A4006375F4001307EFFF2A941D8CAC
:102B8000335FC403C206C1823374C403FA873303BC
:102B9000E3034204558C637C64002A949307FFFF8F
:102BA0006367A400637564009307EFFF2A944207EC
:102BB0005D8F93170701C1833304644013530701EA
:102BC000338E1703B308130333836E02B38EFE02F2
:102BD00093570E01C69EF69763F41701C1663693AC
:102BE00093D807019A9841637D13B3F66700C20634
:102BF000337E6E00F29663661401631E14193A8FD9
:102C00009DCA2A94130FF7FF6361A402636614013F
:102C10006312141963FDD50093971500B3B5B7007F
:102C20002E95130FE7FF2A94BE8563141401638465
:102C3000B600136F1F001307F83F6357E00A93773E
:102C40007F0081CF9377FF0091466388D70093067A
:102C50004F0033BFE601FA94368F9397740063D820
:102C60000700B70700FFFD17FD8C13070840930707
:102C7000E07F63C8E710135F3F009397D401B3E789
:102C8000E70113D5340032051377F77F5207B250AE
:102C900022543181598D7E063367C5009254025902
:102CA000F249624AD24A424BB24B3E85BA854561EF
:102CB00082807D1881478DBB4E86D684228FDA872D
:102CC00009476380E70C0D476386E70A0547E394ED
:102CD000E7F60145814785A85286DDB7B7040800AD
:102CE000014F01468D47E9BF0545198D93078003C4
:102CF000E3C1A7FEFD4763CAA7041308E841B397E1
:102D000004013357AF0033180F01D98F3338000156
:102D1000B3E7070133D5A40013F7770001CF13F70A
:102D2000F70091466308D70013874700B337F700D1
:102D30003E95BA8713178500634A07041317D50118
:102D40008D83D98F0D8101473DBF8557998F93069C
:102D50000002B3D7F40001476306D5001308E84327
:102D600033970401336FE701333FE001B3E7E70135
:102D700001455DB73705080081471307F07F01461D
:102D800019B7014581471307F07FF5BD014581471C
:102D90000547D5BD7A873A8F69BD13D84501B70776
:102DA0001000FD1713D746011378F87F930EF07FBC
:102DB000B3F8B7002A83F58FFD81328E1377F77F42
:102DC000FD826318D801B3EEA80063850E0689451D
:102DD0000DA86316D701B3EEC700E39A0EFE631D7C
:102DE000080433E5A8001335150019E35D8E15CEF0
:102DF00011E5638AD50085C9FD5521A0FD5591C215
:102E0000B6852E858280E34807FF6354E800F5F914
:102E1000E5B7E3E217FF639CF800E36E6EFCE3683E
:102E2000C3FF8145F9BF8545E9BF65FDE9B7E3E02B
:102E3000F8FEC5BFE30107FB4DFF014545BF7971B2
:102E40004ECE93D9450122D426D252CC56CA5AC866
:102E50009394C50006D64AD05EC693F9F97F2A84BA
:102E6000328BB68AB18013DAF501638109089307C2
:102E7000F07F6389F90C9357D5018E04DD8CB70779
:102E80008000DD8C13193500938919C0814B13D54F
:102E90004A011394CA001375F57F318093DAFA0161
:102EA00061C59307F07F630DF5109357DB010E04A6
:102EB0005D8CB70780005D8C130515C093173B0030
:102EC000014793962B00D98E4E95FD16B945334692
:102ED0005A011308150063E6D51097E5FFFF9385A7
:102EE000E5AE8A06AE969442AE96828633E9A40099
:102EF000630309069DC8268597000000E780205AD5
:102F0000130755FFF14763C9E702F547130985FF2A
:102F1000998FB3942401B357F400DD8C3319240145
:102F20009309D0C0B389A94095B797000000E78006
:102F3000005713050502E9B7930485FDB314940007
:102F40000149F9BF33E9A400630B09002A899309F9
:102F5000F07F8D4B2DBF81448149854B0DBF81444E
:102F60009309F07F894B25B7B3676401B5C31DC8CA
:102F7000228597000000E7808052930655FFF147B5
:102F800063CAD7027547930785FF158F3314F40082
:102F90003357EB00598CB317FB001307D0C0330530
:102FA000A74039BF5A8597000000E780404F1305BE
:102FB0000502E1B7130485FD33148B008147F1BF8F
:102FC000B367640191CBDA871305F07F0D47D5BD58
:102FD000014401450547F5B501441305F07F094754
:102FE000CDB5416F930EFFFF1357090193D8070129
:102FF0003379D901B3F7D701B3852803B386270303
:10300000B30FF7023383F50193D506019A95330E7A
:10301000170363F3F5017A9E93D30501B3F5D50148
:10302000B3F6D601135F0401B372D401C205B6959D
:10303000B30E5702B386220333092F033303D9019A
:1030400013D906011A993307E7036374D901416361
:103050001A97935E0901C169BA9E1387F9FF337904
:10306000E900F98E13D404014209F98C36993387AB
:103070009702CA933303F402B3869802B387880297
:10308000B388660093560701C69663F36600CE9731
:1030900093D80601C169B38FF8009387F9FFFD8EBD
:1030A0007D8FB3889202C206BA96B3075402B30466
:1030B0009F0233038F02BE9413D40801A29463F3DA
:1030C000F4004E93C167FD1733F7F400B3F8F8002E
:1030D00042071E9E469733392E0176973304270107
:1030E000369EB336DE00B308F401338FD800333791
:1030F000D70133342401598CC180B3B8F801B336F9
:10310000DF002694B3E6D80036941A9493577F01D3
:1031100026045D8C93179E00CD8FB337F000135EAD
:103120007E0113179F00B3E7C701D98F13177400EF
:103130006358070A13D71700858BD98F1317F4012B
:10314000D98F05809306F83F635ED00813F77700A8
:1031500001CF13F7F70091456308B70013874700C5
:10316000B337F7003E94BA8713177400635807000B
:10317000370700FF7D17798C930608401307E07F1F
:10318000634CD70E13D737009317D401D98F0D8016
:10319000320413F7F67F52073180598C7E0633676D
:1031A000C400B250225492540259F249624AD24A9F
:1031B000424BB24B3E85BA85456182805286268459
:1031C000CA875E8789466309D70A8D46630FD70889
:1031D0008546E319D7F6014481479DA05686DDB7A1
:1031E0002A888DB78545958D13078003E345B7FE83
:1031F0007D476349B7041308E84133170401B3D688
:10320000B700B3970701558FB337F000D98F335408
:10321000B40013F7770001CF13F7F7009146630866
:10322000D70013874700B337F7003E94BA871317C8
:103230008400634807041317D4018D83D98F0D8050
:103240008146B9B70557158F130500023357E400BF
:1032500081466386A5001308E843B3160401D58FA1
:10326000B337F000D98F01446DB7370408008147A8
:103270009306F07F014629BF014481479306F07F02
:1032800001BF01448147854621B7411122C406C6CA
:103290002A8421C597000000E78060201307E041E1
:1032A000A947098F63C6A702AD47898F5505B35754
:1032B000F4003314A4002285B2402244B2071377ED
:1032C000F77F5207B183B3E6E700B68541018280FC
:1032D0005515B317A4000144F9BF81470147E1BF69
:1032E000011106CE22CC26CA4AC84EC652C4B367C4
:1032F000B500638607142A842E89AE84BDC52E8549
:1033000097000000E780A019AA89130AE043330A56
:103310003A419307304363C74707AD47228563D3DC
:1033200037039307A00263C937059305B00293875B
:1033300059FFB3853541B355B400B314F900CD8CB2
:103340003315F4009395C400F2406244137AFA7F77
:10335000520AB181B3E745012A87D2444249B249B2
:10336000224A3A85BE850561828097000000E78089
:1033700000139309050251BF938559FDB314B4009E
:103380000145C9B79307604363D94703138689038F
:103390002285CA8597000000E780C00DC98D2146AF
:1033A000B334B0002285CA85330636419700000049
:1033B000E780A00933E4A4002E89A147228563D4C5
:1033C00037039307700263C637079305800293871C
:1033D00089FFB38535413319F900B355B40033E99A
:1033E00025013315F400B70780FFFD17B375F90009
:1033F0009377750081CF9377F50011476388E700D5
:103400009307450033B5A700AA953E85939785009D
:1034100063DA0700B70780FFFD17130AF043FD8D3D
:10342000330A3A410D819397D5015D8D93D43500D0
:1034300011BF138989FD3319240101456DB78144FA
:103440000145014A01B701CE93070002918F6349FC
:10345000F000130506FE014733D5A500BA8582802A
:1034600033D7C5003355C500B395F5004D8DFDB775
:1034700001CE93070002918F6349F000930506FE89
:103480000147B315B5003A8582803317C500B3955F
:10349000C5003355F500C98DFDB7C1676376F502E8
:1034A0009307F00FB3B7A7008E07130700021D8F15
:1034B000B357F50017D5FFFF13050555AA9703C5A8
:1034C00007003305A740828037070001C147E36E3C
:1034D000E5FCE147D9BFAA858146014601451703AE
:1034E000000067006322411122C406C6970700004E
:1034F0009387472A2A8491C7814597000000E78077
:103500006029971700009387A7DB88431C5591C358
:103510008297228597E0FFFFE7800005411197170A
:103520000000938727DA22C417140000130484D9FB
:103530001D8C26C206C60984BE8411E4B240224412
:103540009244410182807D1493172400A6979C43E6
:103550008297E5B74111971700009387A7D622C439
:1035600017140000130404D61D8C26C24AC006C6D8
:10357000098481443E8963968402971700009387EB
:1035800067D4171400001304E4D31D8C098481440C
:103590003E89639F8400B240224492440249410123
:1035A000828093972400CA979C4385048297E1B751
:1035B00093972400CA979C4385048297D9BF2A8396
:1035C00009CA83830500230073007D160503850562
:1035D0006DFA8280411197D7FF17938767A922C49C
:1035E000804306C61C5C8DEF614597000000E780B4
:1035F000E026B737CDAB08DC9387E7301CC1B7179F
:103600006DE6938747235CC1B7E705009387C7EE54
:103610001CC5AD472316F5000547814718C95CC98D
:10362000105C3787954CB7F75158144A484A13072E
:10363000D7F29387D742B387F602B24022443305CC
:10364000E5023E95B387E60233B7E602938617009C
:1036500014CA2A9733B5F6003A9548CA060505817B
:103660004101828035713ECBB707008093C7F7FFD9
:103670003ECE3EC8C1779387872032C536C73AC948
:1036800042CD46CF3ECA97D7FF179387679E2AC47D
:103690002ACC884334012E862C0086DE36C2970061
:1036A0000000E780A048A24723800700F6500D6184
:1036B000828097D7FF179387A79BB2862E86AA850D
:1036C00088431703000067008300411122C42A8445
:1036D0002E85B285368697D7FF1723A907E606C63B
:1036E00097100000E780C0B9FD576319F50097D720
:1036F000FF179387A7E59C4391C31CC0B2402244A7
:103700004101828097D7FF17938707989C432A8EA1
:103710008DE717D7FF171307E7D797D7FF1723A50D
:10372000E79617D5FFF71305E58DBA8719C51C4134
:1037300017D5FF172324F5DEBA87D8437D487D557A
:103740006347E804630E0E0203A8870863010804B8
:1037500093182700C29823A0C80003230810054629
:103760003316E6003363C3002320681023A0D80873
:1037700089466317DE0083264810558E2322C81021
:10378000930617000A07D4C3BA978CC701458280F5
:10379000797152CC56CA5AC85EC606D622D426D2F1
:1037A0004AD04ECE62C42A8B2E8A97DAFF17938AAC
:1037B000AA8D854B03A40A0011C8444083298408BC
:1037C0001389F4FF8A04A294635E0900B250225464
:1037D00092540259F249624AD24A424BB24B224CAD
:1037E00045618280630E0A00639509007D19F1141A
:1037F000E1BF93172900CE9783A70708E39847FFF7
:103800005840DC407D176318270323222401F9DF89
:10381000032C44006388090083A6091033972B0109
:10382000F98E89EE8297584083A70A00E31487F93E
:10383000E30EF4FA41B723A20400D1BF9316290086
:10384000CE968C4283A64910758F01E75A858297E0
:10385000D9BF2E858297C1BF97D7FF17938747811E
:10386000AA858843170300006700030CDDC983A7FE
:10387000C5FF411122C406C626C21384C5FF63D307
:1038800007003E94AA8497100000E780C09697C76F
:10389000FF179387A77F9C4385E32322040097C7E4
:1038A000FF1723A5877E2244B2402685924441011A
:1038B0001713000067004394637EF400144033073D
:1038C000D4006396E7009843DC43369718C05CC089
:1038D000F9B7BA87D84319C3E37DE4FE944333862E
:1038E000D700631F86001040B29694C33386D7007A
:1038F000E31BC7FA10435843B29694C3D8C365B7C5
:103900006375C400B1479CC079BF1040B306C400C2
:103910006316D70014435843B29614C058C0C0C3AE
:1039200059B78280011126CA93843500F19806CEDA
:1039300022CC4AC84EC6A104B14763F3F406B14491
:1039400063E2B4062A8997100000E780C08A97C70F
:10395000FF179387A77398433A8439EC97C7FF17EB
:10396000938707739C4399EB81454A859710000024
:10397000E780008197C7FF1723ACA770A6854A850B
:1039800097000000E780C07FFD59631F3507B147EE
:103990002320F9004A8597100000E780E08529A0E0
:1039A000E3D004FAB1471CC10145F2406244D2445D
:1039B0004249B249056182801C40858F63C3070478
:1039C000AD4663F6F6001CC03E9404C001A85C40FE
:1039D0006317870217C7FF17232AF76A4A859710CC
:1039E0000000E78060811305B400930744006199EB
:1039F0003307F5405DDB3A94898F1CC07DB75CC30B
:103A0000F1BF2287404091BF130435007198E30E47
:103A100085FAB305A4404A8597000000E780407608
:103A2000E31535FBADB701114AC803A9850022CCC7
:103A300052C45AC006CE26CA4EC656C22E84328BF7
:103A4000368A63E2260B83D7C50013F7074851CBAC
:103A500004408C495848AA8AB389B4408D44B38441
:103A6000E4020947B3C4E402138716004E9763F3D8
:103A7000E400BA8493F70740C9CBA6855685970022
:103A80000000E78060EA2A890DE5B14723A0FA002B
:103A90008357C4007D5593E707042316F400F240D2
:103AA0006244D2444249B249224A924A024B0561D9
:103AB00082800C484E8697000000E78080B08357D4
:103AC000C40093F7F7B793E707082316F4002328F9
:103AD000240144C84E99B38434412320240104C4F2
:103AE000528963732A01528908404A86DA85970011
:103AF0000000E780E06D1C440145B38727411CC4EA
:103B00001C403E992320240159BF268656859700E4
:103B10000000E780806E2A895DF90C485685970081
:103B20000000E780E0D495B783D7C500717126D334
:103B30004AD14ECF06D722D552CD56CB5AC95EC7F1
:103B400062C566C393F70708AA892E89B284A9C7FC
:103B50009C49B9E39305000436C697000000E7804E
:103B6000A0DC2320A9002328A900B24615E1B14713
:103B700023A0F9007D55BA502A549A540A59FA499B
:103B80006A4ADA4A4A4BBA4B2A4C9A4C4D618280B7
:103B900093070004232AF90093070002A30CF10203
:103BA0009307000302DA230DF10236CE930B500285
:103BB00097DAFFFF938A4AF5054C294B2684834701
:103BC000040099C36391770BB30C944063800C029B
:103BD000E6862686CA854E8597000000E780E0E4E9
:103BE000FD57630AF51AD256E69636DA8347040083
:103BF0006383071AFD579304140002D002D63ED205
:103C000002D4A301010682DC83C504001546568553
:103C100097000000E780205A13841400825731E592
:103C200013F7070109C713070002A301E10613F701
:103C3000870009C71307B002A301E10683C6040089
:103C40001307A002638BE602B257268481462546FD
:103C50000347040093051400130707FD6374E60689
:103C60008DC63ED61DA0050499BF330555413315B9
:103C7000AC00C98F3ED0A28441BF72479306470073
:103C8000184336CE634907023AD603470400930728
:103C9000E002631FF704034714009307A002631BAD
:103CA000F702F2470904138747009C433ACE63C1E9
:103CB00007023ED235A83307E04093E727003AD603
:103CC0003ED0E1B7B387670385462E84BA9749B7DC
:103CD000FD57C5B7050402D28146814725460347F3
:103CE000040093051400130707FD637CE606F1F258
:103CF000834504000D4617D5FFFF130565E19700C6
:103D00000000E780404B11CD97D7FFFF938747E036
:103D10001D8D93070004B397A700025505045D8D20
:103D20002AD083450400194617D5FFFF130585DE09
:103D300093041400230CB10297000000E780A04711
:103D400025C597C7FFF79387E72B95E70257F247FB
:103D50001377071009CF91073ECED257D2973EDA9C
:103D6000B1BDB387670385462E84BA978DBF9D0783
:103D7000E19BA107D5B77808970600009386E6CAAD
:103D80004A860C104E8597000000E7000000FD57A2
:103D90002A8AE314F5FC8357C9007D5593F707047D
:103DA000E39B07DC5255C1BB780897060000938659
:103DB000C6C74A860C104E8597000000E780601148
:103DC000F9B7797156CA9C49BA8A984522D426D245
:103DD0004ECE52CC06D64AD05AC85EC6AA892E8488
:103DE000B284368A63D3E700BA879CC003473404A1
:103DF00019C385079CC01C4093F7070281C79C40EC
:103E000089079CC00329040013796900631A09001B
:103E1000130B9401FD5B5C449840998F634CF9044B
:103E20001C408346340493F70702B336D000A5EB59
:103E300013063404D2854E85829AFD576303F50438
:103E40001C4011469840998B544481446397C700A5
:103E5000B384E64063D3040081441C44184863548F
:103E6000F700998FBE94014969047D5B639824052E
:103E7000014509A885465A86D2854E85829A631ED9
:103E800075017D55B250225492540259F249624A4A
:103E9000D24A424BB24B456182800509ADBF330720
:103EA000D40013060003A301C704034754049387F7
:103EB0001600A2978906A381E7049DBF8546228646
:103EC000D2854E85829AE30E65FB050945B7797167
:103ED00022D426D24AD04ECE06D652CC56CA5AC882
:103EE000B68983C685019307E0063289AA842E84A9
:103EF000138635046383F61E63E2D7069307300604
:103F00006382F60A63EDD700638D061E9307800572
:103F10006389F616930A24042301D40469A893073D
:103F200040066386F60093079006E395F6FE1C4074
:103F3000084393F6070893054500C1C21C410CC312
:103F400063D807001307D002B307F040A301E404CD
:103F500097D6FFFF938686BC294765A09307300755
:103F60006385F61A63EFD7009307F006638FF604B4
:103F700093070007E390F6FA9C4193E707029CC180
:103F800009A8930750076382F60493078007E39319
:103F9000F6F893078007A302F40497D6FFFF9386F1
:103FA00026B9F5A01C43938A2504938647009C43B9
:103FB00014C32381F50485479DAA93F607041C4189
:103FC0000CC3BDDEC207C187A5BF0C401C4313F85C
:103FD0000508138547006305080008C39C4339A002
:103FE00093F5050408C3FDD983D707001307F0062E
:103FF000638DE60C97D6FFFF938646B22947A3014F
:1040000004044C400CC463C5050008406D9908C009
:1040100099E3B28A91CDB28AB3F5E702FD1AB6955B
:1040200083C505002380BA00B3D5E70263F5E70A2C
:10403000A147631EF7001C40858B91CB58401C485C
:1040400063C7E70093070003A38FFAFEFD1A330648
:10405000564110C84E87CA867000A28526859700F3
:104060000000E78040D67D5A6317450D7D55B2505C
:10407000225492540259F249624AD24A424B456153
:104080008280A382D50497D6FFFF938626A90C4091
:10409000084313F805081C4111056300080208C312
:1040A00013F7150001C793E505020CC04147A1FBBA
:1040B0000C4093F5F5FD0CC099B713F8050408C33F
:1040C000E30008FEC207C183E1BF97D6FFFF9386D6
:1040D000E6A421472DB7AE8781B794411C43CC4954
:1040E00013F80608138547006306080008C39C43BD
:1040F0008CC301A808C393F606049C43F5DA239009
:10410000B70023280400B28AB1B71C43D0418145CF
:104110009386470014C383AA0700568597000000C2
:10412000E780600901C53305554148C05C401CC8A3
:10413000A301040405B714485686CA8526858299CA
:10414000E30645F31C40898B8DE7B2474844E350B2
:10415000F5F23E8529BF85465686CA852685829911
:10416000E30665F1050A5C443247998FE345FAFEA0
:10417000E9BF014A930A94017D5BF5B7411122C45E
:104180002A842E8597C7FF1723A2073C06C697D01F
:10419000FFFFE7802042FD576319F50097C7FF171F
:1041A0009387C73A9C4391C31CC0B240224441014B
:1041B000828093F5F50F2A966314C500014582802D
:1041C00083470500E38DB7FE0505FDB715C22A83B9
:1041D00085466367B500FD561307F6FF3A93BA9517
:1041E00083830500230073007D163693B6956DFA20
:1041F00082808280828091E5B28517F3FFFF67009D
:10420000A372011122CC06CE26CA4AC84EC63284F9
:1042100011EE97F0FFFFE780A0650149F24062448C
:104220004A85D2444249B24905618280AE84AA8956
:1042300097000000E78080032689E37185FEA28550
:104240004E8597F0FFFFE780206E2A8961D9A68509
:10425000228697F0FFFFE780C036A6854E8597F04F
:10426000FFFFE780E0605DBF83A7C5FF1385C7FF41
:1042700063D50700AA959C413E958280411106C6F0
:1042800022C481460147814793080004730000005F
:104290002A84635A05003304804097000000E780B9
:1042A000600100C17D542285B240224441018280D8
:0C42B00097C7FF179387C7DB8843828005
:0442BC0000000020DE
:1042C00000000000000000000000000000000000EE
:1042D00000000000000000000000000000000000DE
:1042E00000000000000000000000000000000000CE
:1042F00000000000000000000000000000000000BE
:1043000000000000000000000000000000000000AD
:10431000000000000000000000000000000000009D
:1043200000F36F065005002001000000000000208F
:040000050800015C92
:00000001FF
